:020000041000EA
:1000000000B5324B212058609868022188439860DF
:10001000D860186158612E4B002199600221596106
:100020000121F02299502B49196001219960352056
:1000300000F044F80222904214D00621196600F024
:1000400034F8196E01211966002018661A6600F04E
:100050002CF8196E196E196E052000F02FF8012189
:100060000842F9D1002199601B49196000215960AB
:100070001A491B48016001219960EB211966A021F2
:10008000196600F012F800219960164914480160C1
:100090000121996001BC002800D000471248134993
:1000A000086003C880F30888084703B5996A0420EC
:1000B0000142FBD001200142F8D103BD02B5186610
:1000C0001866FFF7F2FF186E186E02BD00000240BE
:1000D000000000180000070000035F00212200005C
:1000E000F4000018222000A00001001008ED00E03C
:1000F00000000000000000000000000074B24E7A12
:1001000000200420F7010010C3010010C5010010F9
:10011000C1010010C1010010C1010010C101001097
:10012000C1010010C1010010C1010010C701001081
:10013000C1010010C1010010C9010010CB01001065
:10014000CD010010CD010010CD010010CD01001037
:10015000CD010010CD010010CD010010CD01001027
:10016000CD010010CD010010CD010010CD01001017
:10017000CD010010CD010010CD010010CD01001007
:10018000CD010010CD010010CD010010CD010010F7
:10019000CD010010CD010010CD010010CD010010E7
:1001A000CD010010CD010010CD010010CD010010D7
:1001B000CD010010CD010010CD010010CD010010C7
:1001C00000BE00BE00BE00BE00BE00BE00F04BF888
:1001D000103800BEF2EB8871F4410110204201108A
:1001E0003402001090A31AE700202149086006C8D5
:1001F00081F3088810471F48006800282FD10DA4FC
:100200000ECC002902D000F012F8F9E71A491B4A77
:10021000002000E001C19142FCD1194988471949E9
:1002200088471949884700BEFDE701C901C29A42C3
:10023000FBD3704720420110C0000020A80E002010
:100240000850011000000420000004200850011094
:1002500000100420001004200000000070470B482C
:1002600004F0FEFD0047EFF30580C0B270470000C8
:1002700008ED00E0000000D0A80E0020EC250020D2
:1002800099300010550C0010C13100105756000075
:1002900006005250ABB36053F419011006005250DF
:1002A000861C0302041A0110060052505422A29D1B
:1002B0000C1A011005005250DE65F4680850011058
:1002C000F8B5C0460448054B10B5834203D0044B33
:1002D000002B00D0984710BDA80E0020A80E0020CB
:1002E0000000000006480749091A8910CB0F591869
:1002F00010B5491003D0044B002B00D0984710BD17
:10030000A80E0020A80E00200000000010B5074C29
:100310002378002B09D1FFF7D5FF054B002B02D026
:10032000044800E000BF0123237010BDB812002074
:100330000000000028140110054B10B5002B03D05D
:100340000449054800E000BFFFF7CCFF10BDC046E0
:1003500000000000BC12002028140110437801782E
:100360001B020B438178027909040B43C17809060B
:10037000194343791B021343827912041343C27950
:1003800012061A43124B19605A60417A027A090226
:100390001143827A12041143C27A12060A439A6008
:1003A000417B027B09021143827B12041143C27B11
:1003B00012060A43DA60417C027C09021143827C06
:1003C00012041143C27C12060A431A617047C046E8
:1003D000381B002010B50400437A017A1B020B433E
:1003E000817A09040B43C17A0120090619430BF0F5
:1003F0007BFC637C217C1B020B43A17C0320090452
:100400000B43E17C090619430BF06EFC10BDC0469E
:10041000F0B54546DE4657464E46E0B50B4B8FB02D
:100420001900CA2098460FF0C1F8002812D10849D7
:10043000C9200FF0BBF8002800D0CBE001200FB09E
:100440003CBC90469946A246AB46F0BDD81F002062
:10045000A01200204346186806F094FA43460400B0
:10046000D8680D0006F08EFA02000B000020F54956
:1004700004F0ADFF434604900591986806F082FAB7
:10048000434602900391586806F07CFA22000090DF
:1004900001912B00EC4806F0E1FD4346186806F098
:1004A00071FA4346E94CEA4D060006940795D86870
:1004B0000F0006F067FA02000B000020E14904F08B
:1004C00086FF434604900591986806F05BFA434620
:1004D00002900391586806F055FA3200009001919D
:1004E0003B00DC480AF0D6FB4346186A06F04AFA9D
:1004F0004346069407950600D86A0F0006F042FAB4
:1005000002000B000020CF4904F061FF4346049035
:100510000591986A06F036FA434602900391586AAC
:1005200006F030FA3200009001913B00CA480AF010
:10053000B1FB4346186B06F025FA4346069407952F
:100540000600D86B0F0006F01DFA02000B00002019
:10055000BC4904F03CFF434604900591986B06F0BB
:1005600011FA434602900391586B06F00BFA3200E1
:10057000009001913B00B9480AF08CFB4346186C8F
:1005800006F000FA4346069407950600D86C0F0063
:1005900006F0F8F902000B000020AA4904F017FF4A
:1005A000434604900591986C06F0ECF9434602909E
:1005B0000391586C06F0E6F93200009001913B007F
:1005C000A7480AF067FBA749C9200EF0EFFF0028F3
:1005D00000D133E702F0E6F8A34B1A685B68801895
:1005E00059410A000100A14B0891099219605A6013
:1005F0009F4B186001205A609B460BF045FB05009D
:1006000001200BF0E9FA040003200BF03DFB07008A
:1006100003200BF0E1FA0899099A964B46429A4654
:100620005A60524636B27F4219605E83FB175361AF
:10063000EB17D360904B20B298461B681761994620
:100640009560108306F07CF9494606F036F9071CE0
:10065000300006F075F9494606F02FF9391C061CE2
:1006600006F011F906F08EF9844A854B04F0AFFECE
:1006700004F09CFF311C8146381C06F007F9FC2170
:10068000890506F01AF906F07DF90A900B91FC2114
:100690007C4C89052569484606F00FF9291C06F0AF
:1006A000F5F806F06FF906000F0004F0A1FF0C90BA
:1006B0000D913000390004F0B1FF0C9A0D9B06003B
:1006C0000F000A980B9904F0A0FE04F06FFF011CC4
:1006D000A06806F0DBF83B003200A0600A980B9996
:1006E00004F093FE04F062FF011CE06806F0CEF80F
:1006F0004946E060281C06F0C9F80899099A20616B
:1007000062602160051C06F03DF95F4A5F4B060000
:100710000F0004F0D3FE002813D05B4A5B4B30007F
:10072000390004F042FE04F041FF051C06F02AF9EE
:10073000554A564B06000F0004F0C0FE0028ECD1CD
:1007400025610021281C06F0EFF800280FD0281C96
:1007500006F018F94C4A4D4B04F030FE04F026FF29
:100760000021051C06F0E0F80028F0D12561484E74
:10077000E62031000EF01AFF002800D105E14346C3
:100780001D6853461820185E06F0DAF8291C06F09A
:1007900094F806F0F7F82D4A2D4B04F018FE04F0FB
:1007A00005FF534680461A20185E06F0C9F8291C3A
:1007B00006F083F806F0E6F8244A254B04F007FE1D
:1007C00004F0F4FEF368414699460A9006F05BF89F
:1007D00006F0D8F8294A2A4B04F0F9FD04F0E6FEA9
:1007E000011C484606F04FF8B5680021061C281C7D
:1007F00006F092F8002800D1D6E0301C06F0C2F8CE
:1008000002000B00164809F083FE06000F00484660
:1008100006F0B8F832003B0004F0D0FD0600281CBA
:100820000F0006F0AFF8089009913900300004F08D
:10083000BDFE06F0A7F8114A114B04F0E6FD0022B8
:1008400028E0C0460000F03FC81601107B14AE47F8
:10085000E17A943F9820002030210020D821002008
:1008600070220020A0120020B0120020000F0020F3
:10087000FC1A0020E01A002000050020D34D621071
:100880005839C43F381B0020182D4454FB2119400F
:10089000D01A0020924B04F0B8FD02000B000600B5
:1008A0000F000898099904F089FD04F07FFE3200DA
:1008B0003B00051C0898099904F077FD04F076FECA
:1008C0000021061C06F028F8002827D00021281C4B
:1008D00006F022F80027002800D1BFE0381C06F0FF
:1008E00051F8804A804B04F090FD00227F4B04F0C9
:1008F0008CFD04F013FE002645422DB2301C06F09C
:1009000041F8784A784B04F080FD0022774B04F0E0
:100910007CFD04F003FE464236B22EE04146301C18
:1009200005F0B1FF06F02EF802000B00704809F048
:10093000EFFD08900991301C06F024F86D4A6E4BCB
:1009400004F033FD6D4A6E4B04F041FD089A099B9B
:1009500004F034FD04F02AFE00218046071C281C08
:1009600005F0DAFF00283FD0FE214046890505F05A
:10097000E1FF002868D00026624D290001200AF01E
:100980000FFE310003200AF00BFE5146F0200EF05E
:10099000B7FC2100D2200EF0B3FC5946DC200EF04B
:1009A000AFFC01F0FFFE49E50A99404605F06EFFF5
:1009B000FC21890505F081FF011C281C05F063FF5F
:1009C00005F0E0FF02000B004F4809F0A1FD089080
:1009D0000991281C05F0D6FF089A099B04F0EEFC4B
:1009E00004F0E4FD051C08E70A99281C05F04BFFFC
:1009F00005F0C8FF02000B00444809F089FD08908B
:100A00000991281C05F0BEFF414A424B04F0CDFC81
:100A1000414A424B04F0DBFC089A099B04F0CEFCEF
:100A200004F0C4FDFE21061C8905404605F082FF46
:100A300000284CD0334DFE21301C890505F07AFF8B
:100A400000283BD02F4E98E73549404605F06CFF13
:100A5000002800D142E70026324D8EE70A99281C73
:100A600005F011FF05F08EFF02000B00274809F08A
:100A70004FFD06000F00281C05F084FF244A254B7B
:100A800004F093FC244A254B04F0A1FC32003B0007
:100A900004F094FC04F08AFD0027061C381C05F0C5
:100AA00071FF104A104B04F0B0FC00220F4B04F011
:100AB000ACFC04F033FD45422DB2BCE71849301CB4
:100AC00005F032FF002800D118E7164E55E714490B
:100AD000404605F029FF0028E0D0124DABE7C046A4
:100AE0000000E03F666666666666EE3F0000E04036
:100AF00098200020A323B9FC87F4BB3F3D9B559F62
:100B0000ABADF63F6786FFFFD821002030210020E3
:100B1000D8F0F44A5986B83FB6847CD0B359F83F30
:100B2000000080BF9979000070B5084C050023686B
:100B30006268134300D070BD01F034FE2A686B6810
:100B4000121A8B4122606360F5E7C046B0120020A4
:100B500030B50B4C95B001005022200005F0EAFFA3
:100B6000084B21001D685022684605F0E3FF6B46E4
:100B70005022B62128000DF037FE15B030BDC0461A
:100B8000D81F0020C81F002070B50024214B82B060
:100B90000093214A214B0821C9200EF06FFB204E03
:100BA000204D33002A0000941421D2200EF066FB61
:100BB0001D4B2A00009314213300D3200EF05EFB5E
:100BC00000941A4B1A4A3C21DC200EF057FB194EB8
:100BD000194D33002A0000941C21F0200EF04EFB2A
:100BE000164B2A0000931C213300F2200EF046FB26
:100BF0000094134B134A1021E6200EF03FFB124BDA
:100C0000124A00935021124BCA200EF037FB02B05B
:100C100070BDC046290B001041F8001055F80010B7
:100C20007DF8001069F800105D030010A5F80010B1
:100C300091F80010CDF80010B9F80010D50300109D
:100C4000F5F80010E1F80010510B001009F9001040
:100C50001DF90010F0B54746CE4680B5CDB03CAC8E
:100C600036AF23003A0035A9C74800F017FA00282C
:100C700003D1C549C54802F0A5FA3C9A3699359882
:100C800000F0D0F906F0F6F9C14801F0DFFCC148E8
:100C900006F006F9C04806F003F90AF063FDBF4804
:100CA00006F0FEF80AF0F8FDBD4DBE48BE492860CA
:100CB00009F0AEF8BD4806F0F3F80321042000F077
:100CC000B7FB0321052000F0B3FBB94806F0E8F8B4
:100CD00000220121042000F0CDFB0121002205208B
:100CE00000F0C8FBB34806F0DBF8192000F030FC38
:100CF000D02380221B0692045A62AF4806F0D0F837
:100D000020000BF0FFFA2B68002663608823012582
:100D1000A3843022403340A96846E56165612663BB
:100D2000A36105F007FFE3686168A2683C980CF0D6
:100D3000B1FDFA20400001F089FC3EA93822684646
:100D400005F0F8FE63683C9A9C480BF0DBFB04213D
:100D50002A009B4B162000F0A5FB9A4806F0A0F84D
:100D6000994806F09DF80EF00FFA0EF013FCFFF70D
:100D70000BFF964806F094F8954808F0E9FFFA2032
:100D8000400001F063FC934806F08AF801F05EF938
:100D9000914B924A029701960093002301F060FA6A
:100DA0008F4806F07DF88F4B0EA8994609F08AFA15
:100DB00098220EA9484605F0BDFE8B4B8B4C9846F9
:100DC000186805F0DFFD4346894D06000694079537
:100DD000D8680F0005F0D6FD02000B000020854901
:100DE00004F0F5FA434604900591986805F0CAFDB1
:100DF000434602900391586805F0C4FD320000900C
:100E000001913B00484609F045FF7B4B0EA89946EF
:100E100009F058FA98220EA9484605F08BFE774B48
:100E20009846186805F0AEFD4346069407950600FF
:100E3000D8680F0005F0A6FD02000B0000206D49E8
:100E400004F0C5FA434604900591986805F09AFDB0
:100E5000434602900391586805F094FD32000090DB
:100E600001913B00484609F015FF654B0EA89946D5
:100E700009F028FA98220EA9484605F05BFE614B5E
:100E80009846186805F07EFD4346069407950600CF
:100E9000D8680F0005F076FD02000B0000205549D0
:100EA00004F095FA434604900591986805F06AFDB0
:100EB000434602900391586805F064FD32000090AB
:100EC00001913B00484609F0E5FE4F4B0EA89946BC
:100ED00009F0F8F998220EA9484605F02BFE4B4B75
:100EE0009846186805F04EFD43460694079506009F
:100EF000D8680F0005F046FD02000B0000203D49B8
:100F000004F065FA434604900591986805F03AFDAF
:100F1000434602900391586805F034FD320000907A
:100F200001913B00484609F0B5FE394805F0B8FF8D
:100F3000384B394C9946394E394DA368F06898467C
:100F400005F020FDE7680A900B91B06805F01AFDE6
:100F500008900991286905F015FD06900791E86849
:100F600005F010FD04900591A86805F00BFD0290B6
:100F700003912369424600936369484601933B000D
:100F800006F06CF8D9E7C04690D003008415011034
:100F9000DC050000481401105C14011070140110ED
:100FA000C81F002020060020801A060084140110AB
:100FB000A0140110B8140110D814011090110020D1
:100FC00065DF0010EC140110001501101015011060
:100FD0003DF400103015011011040010204E0000E7
:100FE0005415011098200020140500207B14AE47F2
:100FF000E17A943F0000F03F3021002024050020DA
:10100000D821002004050020702200203405002093
:1010100068150110B8150110E01A0020D01A002040
:10102000381B0020F0B583B005000E00140000F05E
:101030003FFB002801D003B0F0BD154F01223B005B
:1010400000970121053002F0DBF833002A000094FC
:101050000121104802F0DEFA21002800714303F05C
:1010600055FF04000C4B002200930221042002F0E3
:10107000C7F82300009400220121052002F0C0F8E7
:1010800000973B0002220021062002F0B9F8D2E7C7
:10109000006CDC0200800240001BB700F0B5DE46A9
:1010A00057464E464546E0B5070085B004200393F9
:1010B0000191029202F0A8FAFA21890003F026FFBA
:1010C00032238346FF339A4684005C44A401434B99
:1010D000434AE318062593420ED901235B429C46FE
:1010E0005B46E244E41A5346002BF0D1002059E05D
:1010F000002900D170E045466E1C3100200071438C
:1011000003F004FF87423ED0002DE6D031002000DE
:10111000694303F0FBFE87424BD06B1E9846002BC1
:10112000E9D019002000714303F0F0FE874243D05C
:10113000AB1E9946002BDED019002000714303F04E
:10114000E5FE87423CD0EB1E9946002BD3D0190018
:101150002000714303F0DAFE874235D02B1F9946F9
:10116000002BC8D019002000714303F0CFFE874246
:101170002ED0052DBFD03100200003F0C7FE8742DE
:10118000B6D04546B8E70029BED13500012063013D
:101190001B1B9B001C19019BE4001C60029B1E6032
:1011A000039B1D6005B03CBC90469946A246AB46E9
:1011B000F0BD0029B1D1E9E70029B9D14546E5E7FD
:1011C0000029C0D14D46E1E70029C7D14D46DDE7F2
:1011D0000029CED14D46D9E70125D7E7508EF4FF3F
:1011E00050F80C00D0231B061B68F0B59A0045464A
:1011F000904641468A4ADE465258574693465A1E02
:10120000934130224E465B421A40864B00249C4656
:10121000854BE0B59A4683B062440092E208130021
:101220002600083300999B005D580836002D24D015
:10123000A64224D95B46002B2AD001230F279946CA
:101240003900294013D04B4652464046A34012581D
:101250001A420CD10722080022409200904002005E
:10126000E30872483C339B001A502000D8472D09F0
:101270000134002D01D0A642E2D8202E01D0340046
:10128000CCE703B03CBC90469946A246AB46F0BDC5
:101290000F232B4007D001214746A1406248C05987
:1012A000084200D1A8E02B09611C002BE5D08E423A
:1012B000E3D90F2213406BD12B0AA11C002BDCD0E9
:1012C0008E42DAD90F22134073D12B0BE11C002B75
:1012D000D3D08E42D1D90F2213407BD12B0C211DAC
:1012E000002BCAD08E42C8D90F2213400FD04746D8
:1012F0000E3A8A404C48C059104208D10720CA080B
:10130000014089008B403C324849920053502B0DDC
:10131000611D002BB1D08E42AFD90F22134006D0F1
:1013200047460E3A8A404048C05910426DD02B0EB5
:10133000A11D002BA1D08E429FD90F2213400FD0A8
:1013400047460E3A8A403848C059104208D1072013
:10135000CA08014089008B403C3234499200535006
:101360002D0F0734002D00D187E701234146A3400C
:101370002D4A525801921A4200D07EE70722E30814
:101380001440A400A5403C33284A9B009D5074E7BC
:1013900047460E3A8A402448C05910428CD1072053
:1013A000CA08014089008B403C32204992005350CA
:1013B00082E747460E3A8A401B48C059104284D102
:1013C0000720CA08014089008B403C32174992002F
:1013D00053507AE747460E3A8A401348C0591042A4
:1013E00000D07BE70720CA08014089008B403C32CF
:1013F0000E499200535071E70721214089008B402C
:101400003C320A49920053504DE70720CA08014078
:1014100089008B403C3205499200535087E7C04613
:101420008C1A002000410140402000200040014073
:10143000094A830094464022634410B51C68C000EA
:101440006240C02414408022520113431C60034BAD
:101450009C466044416010BD04C001400040014012
:10146000034BC0009C46604443681F2018407047EF
:10147000004001400A4B80009C4604236044002940
:1014800001D00C230821002A00D10B000268534030
:101490000C221A4080235B01184302607047C0464B
:1014A00004C00140F8B51D00D0231B061B681400C2
:1014B0005A1E934130225B421340214AC60894468B
:1014C000072202409200914032001E483C326344A1
:1014D0009200B60011509B19002C11D0802292016D
:1014E00013431960D0231B061E68174FB600BB5963
:1014F000002B11D0002D1ED0BD51002C16D1F8BDEF
:10150000C022920113431960D0231B061E680E4FA0
:10151000B600BB59002BEDD1002DEED000220B49B7
:101520000D20BD5100F064F9002CE8D001210D2000
:1015300000F0F0F8E3E705490D2000F03DFADBE7A5
:1015400000410140004001408C1A0020E5110010CC
:101550000123D0228340120693629361094A8300DB
:101560009446402263441968C0004A40C02111409B
:101570008022520113431960034B9C4605236044AB
:101580004360704704C0014000400140EFF3108009
:1015900072B6034A1368002BFCD0BFF35F8F70470D
:1015A0002C0100D0BFF35F8F0022024B1A6080F342
:1015B000108870472C0100D0CB08C25C07230120A3
:1015C0000B4098401040431E9841C0B27047C0463F
:1015D000F8B5EFF3108772B60D4E3368002BFCD0D0
:1015E000BFF35F8F0725CB08C01801230D40AB4028
:1015F0001D000478254007D123430370BFF35F8F9C
:10160000356087F31088F8BD100001F0DBFDC0469F
:101610002C0100D0F8B5CE4647468C4680B5EFF396
:10162000108872B6214D2C68002CFCD0BFF35F8F60
:101630009A422CD80721012511408D40D408041965
:10164000267835421FD007218946063909E04D46E4
:101650000F001540AF40D408041926783D003742EA
:1016600011D001329342F2D201204042BFF35F8F8A
:1016700000220E4B1A6088F3108800280FDB0CBC88
:1016800090469946F8BD354325701000EEE7BFF34C
:101690005F8F00232B6088F310880120404263464F
:1016A000002BECD0089801F08DFDC0462C0100D035
:1016B000024B18688007C00F7047C04600C0064044
:1016C0000021044B044ABFF35F8F02C39342FAD157
:1016D0007047C046000100D0800100D0044A107855
:1016E000431CDBB2172B00D9102313707047C04680
:1016F0004405002000B5054B83B00100009318227B
:101700001F230348FFF786FF03B000BDE01601105A
:10171000941A002001238340002904D0034A136057
:10172000034A13607047034A1360FBE780E200E05E
:1017300000E100E080E100E001228240034B1B68F1
:101740001340581E8341D8B27047C04600E100E004
:1017500001238340014A13607047C04600E200E065
:10176000084B10309B688000C358002B07D0064AF6
:1017700000209B1A2F229A424041C0B2704700209D
:10178000FCE7C04600ED00E048050020024B1030A9
:101790009B688000C058704700ED00E070B50D00F8
:1017A000EFF3108672B60F4A1368002BFCD0BFF31C
:1017B0005F8F0D4B10309B6884001B590B4A93427E
:1017C00003D09D4201D001F015FD074B9B681D51D0
:1017D000BFF35F8FBFF35F8F0022024B1A6086F367
:1017E000108870BD240100D000ED00E0CD01001094
:1017F000F8B557464546DE464E468A46E0B5904621
:101800000700EFF3108972B6604A1368002BFCD012
:10181000BFF35F8F00205E4B18569B46002800DA0E
:10182000A2E05A4644005B4D2418A4002E19B37957
:1018300010371370584BBA009B68934699584B1B4E
:101840002F2B41D801230A009A43D379944643456C
:1018500014D90627D7571300002F06DA8DE0062784
:10186000DF571A00002F00DA87E07B00DB199B00AE
:10187000EB18DF794745F2D8002A51D1474A634631
:101880005B1B5B415A43120D454BA11C3380454BFA
:101890006918043B5B1A1B0543495B0D0B437380BE
:1018A00063460434043B2D195D1B43462D05F3713B
:1018B0006D0D53462943B180B27101216246B36078
:1018C0003A4B3143136018E0394B994252D1344BB3
:1018D00002343380334B2D19043B5D1B2D05324BF5
:1018E0006D0D1D43334B0121B380FF23B37143467C
:1018F000F37153467580B36031435A46264B9B685B
:101900009950BFF35F8FBFF35F8F00221F4B1A60A8
:1019100089F310883CBC90469946A246AB46F8BD78
:101920000627D757131D9C46002F2CDB04342D1996
:10193000E024938824025B051B1563445B1B1B0595
:101940005B0D23436546341F641B2405164D640D4F
:101950002C4394809071B3804346F3715346134AED
:10196000B7713260B360C8E701F044FC5B46002009
:10197000185656E701F03EFCA9E71A1D94461A00D6
:10198000BD231B02DEE7BD231B02DBE7240100D0E1
:10199000912000204805002000ED00E0AAAA0000E8
:1019A00000A1FFFF7805002000E0FFFF014880470D
:1019B000CD01001000BDFFFFF0B54546DE4657469D
:1019C0004E46E0B50D0083B0EFF3108A72B65A4A66
:1019D0001368002BFCD0BFF35F8F10229146814427
:1019E0004A46564B96009B689C59554B98469C42DC
:1019F00005D0AC4216D0534FE31B2F2B14D94F4BBD
:101A00009B689C51BFF35F8FBFF35F8F00224A4BEF
:101A10001A608AF3108803B03CBC90469946A246EF
:101A2000AB46F0BD1C00EAE7012383409B465A46C3
:101A3000454B1B681A4000925A46444B1A60BFF34C
:101A40005F8FFEF710FC0190002803D0814501D084
:101A500001F0D0FB0123220006219A4393685156DE
:101A60009D420AD152E04B005B1806219B00FB18F7
:101A700098685956A8420FD01A000029F3DA009B43
:101A8000002B05D05A46324B1A602F4B1A60B6E72E
:101A90005A462E4B1A60B2E7002921DB4A00501843
:101AA00080003D188046A8689860E879D8710620C3
:101AB00028569871002826DBAD88F81A6D052D157B
:101AC00045444019E0250005400D2D02284398802B
:101AD0005218204B9200BF181A781970BA71CEE7CD
:101AE0000199002918D1002A23D0FF3191711A4998
:101AF000918018490A789A71184ADB1B5B415A4356
:101B0000120D0A70BBE7BD200002E0E713000029B8
:101B1000C4DA019A002A0CD0114A1249D21A083AA2
:101B20005002400D014399800F4952080A43DA8060
:101B3000A5E74446DDE7C046240100D000ED00E003
:101B4000CD0100104805002000E100E080E100E048
:101B500080E200E09120002000BDFFFFAAAA000063
:101B60008205002000F0FFFF00F8FFFFF8B5012517
:101B700004000543FEF777FBEFF3108672B6214AA7
:101B80001368002BFCD0BFF35F8F1F4B1F4A21004F
:101B9000C91A49414A43120D1D4980008F6852B24B
:101BA0003F58AF421CD00621595691421CD01221F9
:101BB0005956914222D01E215956914220D02A21B5
:101BC00059560320914210D0124B19781A70A17106
:101BD000BFF35F8F00220B4B1A6086F31088F8BDAD
:101BE0008B680D491950EFE7002041000918890062
:101BF0005B18FF21997109499980E5E70120F4E715
:101C00000220F2E7240100D048050020AAAA000023
:101C100000ED00E091200020CD01001000BDFFFF8D
:101C2000054B064A1360064A136053609360D36005
:101C300013615361936170478080808000E400E00D
:101C400004E400E0D02300B51B0601001868074B30
:101C500083B01818064B002200930523FFF7DAFC27
:101C6000002801DB1F23181A03B000BD84200020C8
:101C7000FC160110024B9C466144890001607047CC
:101C80004000003483680B4810B5844661446244C8
:101C9000090112019A18591854684B6801209C4296
:101CA00001D802D00020C0B210BD12680B689A4261
:101CB000F9D8F7E7FFFFFF0F10B508000B690C001C
:101CC0009847002802D02068616810BDE0600021BC
:101CD0000020FAE70A4B1968EFF3108072B60A6821
:101CE000002AFCD0BFF35F8F1B68BFF35F8F002219
:101CF0001A6080F3108840BF002000217047C04662
:101D000054200020F8B5454657464E46DE46E0B51D
:101D100014000DAA12781D000CAB92461B780268C5
:101D200081469046002B13D1977B002F4AD0404626
:101D30007E001268F619033E921951783B008173B8
:101D4000002900D1C173002191705170117003E01E
:101D50001F005E00F618033E2E4A94464A469268DB
:101D6000634494461B010A9A63449A600B9A1C6070
:101D70005D60DA60434600221B689B199A705A70B6
:101D80001A7043465B7B9B46002B2BD043463A00A0
:101D9000986859465B6898475B4642465B005B44DF
:101DA000033B1268002814D0D31896195A46B27013
:101DB0001A78002A00D072701F705A4643465A7330
:101DC000BB4511D038003CBC90469946A246AB4674
:101DD000F8BDD31896199F703278002A00D05A7037
:101DE0005B46337043465F734B462200187D2B00E1
:101DF00000F06AFD041E07D05346002B04D14B4669
:101E00003900186801F0DEF80E9B002BDAD01C7048
:101E1000D8E7C046FFFFFF0FF0B5DE4657464E46F7
:101E200045460023E0B58DB00A936D4B8200D4582F
:101E300000239B460B9000F0B5FC6268EFF3108521
:101E400072B61368002BFCD0BFF35F8F23689C46EB
:101E50005B7B9946002B00D16BE0A268614B9046FA
:101E60004B441B01984443461E685F6832003B00A8
:101E7000121A8B41002B65DD3B0032000B9800F0FD
:101E800023FD0023002208920993002300279A468D
:101E90006368BFF35F8F5A461A6085F31088534614
:101EA000002B08D10028C6D10DB03CBC9046994605
:101EB000A246AB46F0BD0A9B390018024B461843B8
:101EC000D047626806900791EFF3108872B65646C5
:101ED00045461368002BFCD0B246A846BFF35F8F7F
:101EE0000699079A131E49DB194302D02369002B78
:101EF0005FD12368DA7B002A07D051008A1819685D
:101F00008C4649466244033A51704A46DA73E268A5
:101F10004B469446013B63441A7801321A705B4683
:101F200023616368BFF35F8F5A461A6088F3108895
:101F300081E70023002208920993002300279A4694
:101F40000020A5E7002B01D1002A95D10021604691
:101F500000F05AFF43461A685B68089209934346AB
:101F60009B689A464346DF68E3684B44013B1B7815
:101F70000A931B0203432361002089E72369002B96
:101F8000B7D0089D099E6D1A96412A003300089D1E
:101F9000099E9E4218D81BD05946049101210391F5
:101FA000494602915146019700912000FFF7AAFE91
:101FB000B5E700F0F7FB069A079B12184B419942D0
:101FC00002D8E9D19042E7D901225242D317E3E780
:101FD00008999142E0D901225242D317DCE7C0466A
:101FE00030200020FFFFFF0F10B5124C6368002B5C
:101FF00004D00A211048FFF73DFE10BD23000F4A10
:102000001021206800F022FD032000F0BFFB032018
:1020100000F0CEFC0A49032000F010FCFFF75EFB45
:10202000084B9C46032360442375074B8000606087
:10203000DC60DEE79005002054200020851C0010A5
:10204000191E001040000034302000200048704766
:1020500090050020F0B557464546DE464E46E0B5B1
:1020600085B00092019310AB1B78002703930023E7
:1020700080469A4643465A68EFF3108972B6136851
:10208000002BFCD0BFF35F8F43461D68AC7B002C58
:102090004FD0660036192B68033E9B195A78AA73F5
:1020A000002A00D1EA7342469F705F701F709268E9
:1020B0004E4B94460099019AE3181B016344196042
:1020C0005A600E9A9A600F9ADA602B689B199F707B
:1020D0005F701F706B7B9B46002B42D02200190063
:1020E000A8686B6898475B465B005B44033B2A68C3
:1020F00000282DD0D31896195A46B2701A78002AA3
:1021000000D072701C705B466B735C452AD04346EE
:10211000DB681B19013B187843465B68BFF35F8F90
:102120001F6089F310885346002B2AD100022043F8
:1021300007E05B68BFF35F8F1C6089F310880120A4
:10214000404205B03CBC90469946A246AB46F0BD25
:10215000D31896199C703278002A00D05A705B46CA
:1021600033706C734346187D009A019B00F0ACFB02
:1021700082460028CBD043462100186800F022FF99
:10218000C5E7039B002B2FD00E9B0F99002098478B
:1021900003000B4328D004000D1E0DDA00980199AE
:1021A00002000B00121BAB41994213D818D00092C9
:1021B0000193039B9A465DE700F0F4FA24184D4121
:1021C00023002C0000930194A94203D8F1D1009B75
:1021D0009842EED901235B42DC1700930194E8E7B3
:1021E00000999142E3D9F5E70020AAE7FFFFFF0F2E
:1021F000F8B542680400EFF3108572B61368002B3F
:10220000FCD0BFF35F8FFF232068CEB2427B0B4030
:10221000B24208D007685A00BC46D2186244033A5A
:102220009278002A11D0E268090A94466344013B7F
:102230001B78C9B28B420ED000206368BFF35F8F5A
:1022400000221A6085F31088F8BD23698B42F3D110
:1022500022610020F1E7310000F0B4FEEDE7C04656
:10226000F0B54E464546DE465746E0B585B0109976
:10227000060088461100194300D1F3E0D817070083
:1022800057403C0007005F4001003D00241A8D418B
:1022900041460E980A600F9A4B608E6008614A6151
:1022A00000F080FA24184D4123002C000093019483
:1022B000A94200D9E5E000D1DFE00023994643467A
:1022C0000025B0461E00109343465B68EFF3108A6A
:1022D00072B61A68002AFCD0BFF35F8F43461F68AE
:1022E000BC7B002C63D063001B19DA1E94463B684C
:1022F000039263445A78BA73002A00D1FA734A46AB
:102300009A705A701A7042469268634B94460099CC
:10231000019AE3181B01634419605A605F4A4946F9
:102320009A60039ADE6094463B68634499705970E2
:1023300019707B7B9B46002B00D183E019002200A3
:102340007B68B86898475B465B005B44033B0028AA
:1023500000D16DE003993A688C465946D31862441F
:1023600091701978002900D085E01C705B467B7362
:102370005C4568D043464246DB6852681B19013B06
:102380001B78BFF35F8F494611608AF31088002DD8
:102390001BD1B0461B021C43013543462800DC60BC
:1023A00005B03CBC90469946A246AB46F0BD10969F
:1023B0004646109B98467368BFF35F8F1C608AF394
:1023C0001088012400256442E7E73000336998470C
:1023D000071E02D1B0460024DFE73268736811009F
:1023E000194354D014001D1E0CDA00980199020004
:1023F0000B00121BAB4199420FD812D03D00009246
:10240000019361E700F0CEF922002B0012184B4136
:10241000994202D8F2D19042F0D901225242D31708
:10242000ECE700999142E9D901225242D317E5E73E
:102430003968039ACB188A189C701178002916D134
:102440005B4613707C734346187D009A019B00F035
:102450003BFA051E00D18DE743462100186800F0C5
:10246000B1FD87E7012400250122002310E7597000
:102470005B461370E6E7517077E7009B984200D8FF
:102480001BE701235B42DC170093019415E7B0467C
:102490003D00002481E7C046FFFFFF0FB91C00107C
:1024A000F0B504000D0006267642F717C646361929
:1024B0006F4100B584B08F4214D811D000F072F98A
:1024C00032003B00121A8B41002B15DC002B3ED052
:1024D0002000290000F0A2F904B004BC9046F0BD31
:1024E0008642EBD90026002700F05CF932003B0061
:1024F000121A8B41002BE9DD002302930193154B47
:102500003200009314483B00FFF7A4FD0028DFDBF6
:1025100000239846BC46114A114F7B6A9C4504D85B
:10252000B96AB142D4D29C45D2D11168EFF3108080
:1025300072B60B68002BFCD0BFF35F8F1368BFF33C
:102540005F8F4146196080F3108820BFE5E7002ABD
:10255000BED0D1E7D51C00109005002054200020EB
:1025600000400540F0B5C64600B584B004000D003B
:1025700000F018F924184D41A9421DD81AD006269A
:102580007642F71736196F41AF4251D9002600271E
:1025900000F008F932003B00121A8B41002B19DCC5
:1025A000002B42D02000290000F038F904B004BC10
:1025B0009046F0BDA042E2D907267642F71700F018
:1025C000F1F832003B00121A8B4101246442E517F6
:1025D000002BE5DD002302930193184B320000939A
:1025E00017483B00FFF736FD0028DBDB0023BC4625
:1025F00098461449144A4B6A9C4504D8886AB042EC
:10260000D0D29C45CED11068EFF3108372B6076824
:10261000002FFCD0BFF35F8F1068BFF35F8F47467A
:10262000076083F3108820BFE5E7002ABAD0D1E71E
:10263000AF42ADD1A642A9D8AAE7C046D51C00102A
:1026400090050020004005405420002070B5060091
:1026500000F0A8F8FA2204000D00920000233000D8
:10266000002104F0F3F8001969418D4205D802D029
:10267000FFF716FF70BD8442FAD901204042C1170E
:10268000F6E7C046002370B584B0114E0293019363
:10269000104B0500009302000B0030000C00FFF708
:1026A000D9FC002804DD20BF01003000FFF7A0FDA9
:1026B000094A0020536AA34203D3926A0130AA4216
:1026C00001D304B070BD1C1B601E8441E0B2F8E76A
:1026D00090050020D51C001000400540F0B5C6460E
:1026E00000B5EFF305833F22134018001038EFF3D5
:1026F000108772B61F4D2A68002AFCD0BFF35F8F87
:10270000012211008140884644461B494C631B4C02
:102710002678A4463400C440224015D04C6A18499B
:10272000820051588C4217D3164BD25843469E43D1
:1027300063461E70BFF35F8F00232B6087F3108802
:10274000002A06D0904704E0BFF35F8F2A6087F32A
:10275000108804BC9046F0BD0B4A9B00944663442D
:102760001A681A60BFF35F8F00232B6087F310880D
:10277000EFE7C046280100D000400540942000202B
:10278000602000207C190020D03F054010B50100DA
:10279000024A0348FEF71CFF10BDC0462017011077
:1027A0008F200020044A516A00E01900906A536AA1
:1027B0009942FAD17047C04600400540164A70B5AC
:1027C000546A00E01C00956A536AA342FAD12A00B9
:1027D00023008018594105000E008C4202D819D1FF
:1027E000824217D9012201256D42EE1752420A4C4E
:1027F000636A9342FCD39A420BD1074B2800996A33
:10280000A94203D305E0996A814202D2596A9142F2
:10281000F9D070BD3200EAE700400540064A536A2D
:102820009942FCD807D1044B02E05A6A914202D186
:102830009A6A8242F9D370470040054070B504009F
:102840000D00EFF3108672B61A4A1368002BFCD005
:10285000BFF35F8F002D1BD02000FEF797FF1649B6
:1028600088420AD02000FEF799FF01212000FEF7E0
:1028700051FF0123A340114A1360114BA400E550FE
:10288000BFF35F8F00220B4B1A6086F3108870BD78
:102890000B4BA200D5500122A2400A4920000B7820
:1028A00093430B700449FFF787F800212000FEF7DF
:1028B00031FFE5E7280100D0DD2600103860054033
:1028C0007C19002094200020F0B5D6464F4646469D
:1028D000324CC0B5656A00E00D00A66A616AA94283
:1028E000FAD1AB4209D806D0012420001CBC904686
:1028F0009946A246F0BDB242F6D9EFF3108972B6FE
:10290000274C21680029FCD0BFF35F8F01262549A1
:1029100086408C460978244D0F0037438846F9B22B
:102920008A46614654460C701C49041DA4004E633F
:102930006250840063510D6A002435421AD04D6AFA
:1029400000E025008F6A4C6AAC42FAD1AB4219D83C
:1029500001D1BA4216D8C2451DD0104B134A1E628F
:102960005E631F2318401E3B83401360634642464C
:1029700001241A70BFF35F8F0022094B1A6089F39C
:102980001088B2E70024BFF35F8F0022044B1A6067
:1029900089F31088A9E70124ECE7C0460040054010
:1029A000280100D0942000206020002080E200E078
:1029B00010B5EFF3108472B60A490B68002BFCD0F7
:1029C000BFF35F8F01238340074A084813620278F0
:1029D0009A430270BFF35F8F00230B6084F310886B
:1029E00010BDC046280100D00040054094200020C2
:1029F00070B506000D00140000291ED0002A1ED05C
:102A000073688068984763006A001B195219033B7A
:102A1000033A3168002808D0CB188A189D701178C5
:102A200000290ED11470280008E08A18CB18947081
:102A30001978002900D051701D70200070BD080069
:102A4000FCE7597028001470F8E7C046F0B5DE4680
:102A500057464E464546E0B58360002389B0426044
:102A6000026806914373C9B2013305910173837300
:102A7000C1730492012900D8A4E00A004B1ED9B208
:102A8000931E0791072B00D8AEE00025CB080393D7
:102A9000049B564C591C564B56489B46564B9A46DF
:102AA000564B9C46564B0293524663465F465E46E3
:102AB00062401A40504B2740FB185A40064053468C
:102AC00001966646434033404B4E0A70B046019E25
:102AD0000135B146C844464673401604360ECE70E2
:102AE0001602120E4A721A04120E0B73CA731A02DD
:102AF0001B0E4B75029B360E5C4063461C40404BE0
:102B0000120E9846029B47445840634618404B4675
:102B100043445840039BEDB28E718A747C40183157
:102B2000AB42C1D1079907230A009A43531CDBB279
:102B3000914247D0049C5A00A446D218591C6244C2
:102B4000059DC9B2033A51708D423BD94A005218D3
:102B5000981C6244C0B2033A5070854232D9420098
:102B60001218D91C6244C9B2033A51708D4229D956
:102B70004A005218181D6244C0B2033A5070854290
:102B800020D942001218591D6244C9B2033A51704B
:102B90008D4217D94A005218981D6244C0B2033AB8
:102BA000507085420ED942001218D91D6244C9B234
:102BB000033A51708D4205D94A0052186244033AD3
:102BC00008335370FF23069A13405900C918049B19
:102BD0009C460023614403394B7009B03CBC9046CD
:102BE0009946A246AB46F0BD0123A3E701020304C8
:102BF0007F7F7F7F050607080101010180808080BB
:102C00000808080870B50400002907D04B000068C8
:102C10005B18033BC3185A78002A01D1080070BD25
:102C20005500AD18033D40190025467845705D708C
:102C30002000FFF7DDFE310005002000FFF7E2FF76
:102C4000290002002000FFF7D3FE0100E6E7C0469E
:102C5000F0B54E464546DE465746E0B50E007400D8
:102C60000168A41985B0033C01920A190500107887
:102C700000284CD043001B18033BCB185F78BC46A0
:102C8000002F16D1019C002C3ED0EC7B002C04D0F0
:102C900063001B19CB18033B5E70EE7300282FD125
:102CA0000023537005B03CBC90469946A246AB4603
:102CB000F0BD7A006244033A89184A7893460022AC
:102CC0004A7090465A7001003A002800FFF790FEC3
:102CD0005B468146002B07D05B0029685B44033BC1
:102CE000CB185A78002A16D15A4649462800FFF7D1
:102CF0007FFE2968019B0A19002BC6D10028CFD07E
:102D000043001B18033BCB1800219970C8E7019BB7
:102D1000002BBAD1C4E7500080180338091848784E
:102D2000824640464870587059462800FFF760FEBA
:102D300053468346002B07D05B0029685344033B6E
:102D4000CB185A78002A06D1594652462800FFF778
:102D50004FFE8346C8E750008018033809184046E4
:102D60004F7848705870514628000297FFF740FE90
:102D70008246002F08D0BC467B0029686344033B91
:102D8000CB185A78002A06D15146029A2800FFF73C
:102D90002FFE8246D8E750008018033809184046B5
:102DA0004F7848705870029928000397FFF720FE6B
:102DB0008046002F08D0BC467B0029686344033B53
:102DC000CB185A78002A06D1039A41462800FFF70B
:102DD0000FFE0290D8E70320504303380918002063
:102DE0004F784870587003992800FFF701FE3900AA
:102DF00002902800FFF706FF029902002800FFF763
:102E0000F7FD0390E0E7C046F0B54E464546DE4686
:102E10005746E0B5467B050074000068A419033CE2
:102E200085B002190191117800294ED04B005B1832
:102E3000033BC3185F78BC46002F18D1019C002CBF
:102E400040D0EC7B002C04D063001B19C318033B5B
:102E50005E70EE73002931D1002330005370697326
:102E600005B03CBC90469946A246AB46F0BD7A0000
:102E70006244033A8018427893460022427090469A
:102E80005A7028003A00FFF7B3FD5B468146002BDD
:102E900007D05B0029685B44033BCB185A78002AB3
:102EA00017D15A4649462800FFF7A2FD019B0100B1
:102EB00028680219002BC4D10029CDD04B005B1823
:102EC000033BC31800209870C6E7019B002BB8D1C4
:102ED000C2E75000801803380918487882464046F7
:102EE0004870587059462800FFF782FD53468346C4
:102EF000002B07D05B0029685344033BCB185A785A
:102F0000002A06D1594652462800FFF771FD834634
:102F1000C7E7500080180338091840464F784870BA
:102F20005870514628000297FFF762FD8246002F35
:102F300008D0BC467B0029686344033BCB185A7811
:102F4000002A06D15146029A2800FFF751FD824619
:102F5000D8E7500080180338091840464F78487069
:102F60005870029928000397FFF742FD8046002F12
:102F700008D0BC467B0029686344033BCB185A78D1
:102F8000002A06D1039A41462800FFF731FD02903E
:102F9000D8E7032050430338091800204F784870C1
:102FA000587003992800FFF723FD3900029028008C
:102FB000FFF728FE029902002800FFF719FD039091
:102FC000E0E7C04670B5040000292CD0437B8B425B
:102FD0002ED0056848004018033828188278002A47
:102FE00021D053009B18033BEB181A788A4202D178
:102FF0001BE0002A08D053009B18033BEB185A78BB
:103000008A42F6D142785A700023012283704370BD
:103010002000FFF71DFE617B02002000FFF7E8FCA7
:103020006073012000E0002070BD42781A70EBE769
:1030300001221900FFF70CFE60730120F4E7C0467F
:1030400010B50400FEF74AFB01002000FEF712FE57
:10305000FF232371BFF35F8F10BDC04610B504007E
:10306000FEF73CFB01002000FEF704FEFF23A380D7
:10307000BFF35F8F10BDC04610B504000120FEF7FE
:1030800039FB044B9C46604480002060BFF35F8F97
:1030900010BDC046400000342D4B2E4A70B51A605A
:1030A0002D4A2E4B2E491A6010008B689843FBD195
:1030B0002C4C2D4B9C4209D2013B1D1BAD08013508
:1030C000AD002D1908CC9847AC42FBD100F03CF97B
:1030D000264A224B1A60224A9368DB018033FBD1D7
:1030E0004022234B234D24489A675A671A67DA66B1
:1030F000A84205D30EE0FFF7B1FF2000AC4209D291
:10310000040003680834002BF5D1FFF799FF200075
:10311000AC42F5D3194C1A4DA168C022280003F027
:1031200009FDA560FEF7CCFAFEF77AFDFEF75CFF1D
:10313000144C154B9C4209D2013B1D1BAD080135B7
:10314000AD002D1908CC9847A542FBD170BDC046F3
:1031500000E00040BFCDFBFEFE7F3C0000F00040E1
:1031600000C00040900E0020A00E0020FFFFFF01D5
:1031700000F00140900E0020800E002000ED00E0E5
:1031800000000020A00E0020A80E0020094A1368AD
:10319000002B06D008491818884208D8106018007B
:1031A0007047064B0449181813608842F6D901236A
:1031B0005B42F4E7C41B002000000420EC25002043
:1031C00000BEFDE70FB400B5084883B003F068FE09
:1031D000049B002B07D005A91800019101F020FEE7
:1031E000034803F05DFE00BEFDE7C0465017011026
:1031F0005C26011010B50148FFF7E4FF44170110E9
:10320000F0B5DE46574645464E46E0B583B017005A
:103210000C9A05008B469A4200D971E01A0E92462C
:103220001E020C9A00233000514601F0B1FE444BBF
:103230006C009C466419A400644463688046834221
:1032400000D260602B1FDAB2C0239B01019223439E
:10325000012A33D9802212011A603A4BAD00595924
:10326000994600294ED04B46586901F04FFE013077
:103270000138FDD123687F017B40E0271F40802378
:10328000019A5B0123431F60012A2CD980238022ED
:103290009B01234312011A6043464246636030009B
:1032A0000023514601F074FE4B465851012003B0F3
:1032B0003CBC90469946A246AB46F0BD5A46012A10
:1032C0002AD0802212011A601E4BAD00595999462E
:1032D0000029C8D123687F017B40E0271F4080235D
:1032E0005B0123431F605A462168514003220A4074
:1032F0001A6001225B469A40A3681A42FCD0C5E7D7
:103300000020D4E723687F017B40E0271F40802313
:103310005B0123431F60B9E702321A60023AA368D7
:103320001A42FCD023687F017B40E0271F408023A6
:10333000044A5B0123431F609146AD00D3E7C046BA
:1033400000800040981A002030B50C2083B000F0B7
:10335000B5F9FEF7ADF900280ED0944B944A1A60E7
:103360005A609A60DA601A615A619A61DA611A6287
:10337000904A5A6203B030BD8F4CA06700F0F2F95A
:1033800001228E4B1A60636C012BFCD103228C4B03
:103390001A60894A936B012BFCD101330093894A4F
:1033A00004330121884800F035F90523874A00934A
:1033B0000121874800F02EF9864B5A68FF2A02D86F
:1033C000802252005A608022784C7D4B2169120184
:1033D000804D1A60002905D0606901F097FD013029
:1033E0000138FDD1E0217B4B02201A681140802278
:1033F00052012A43116019684840032101401160BD
:1034000004219A681142FCD08022802192012A4333
:1034100009011160802252005A606F4B23616F4B8B
:103420005968FF2900D85A6003226C48634B012178
:103430001A60020093681942FCD0E02513681D4011
:1034400080235B0103431D6012684A400321114041
:1034500019600221614A93681942FCD080238021BF
:103460009B0103430901196080215D4B49005160B4
:1034700063615C4B5A68FF2A00D8596080225A4B1E
:10348000E1691201574D1A60002905D0606901F009
:103490003DFD01300138FDD1E02252490B681A4050
:1034A00080235B012B431A60802380229B012B43E6
:1034B00012011A6080223E4B52004A60E3614B4B7E
:1034C0005968FF2900D85A608022494B216A1201AD
:1034D000464D1A60002905D0606901F017FD0130E2
:1034E0000138FDD1E02241490B681A4080235B017D
:1034F0002B431A60802380229B012B4312011A6008
:1035000080235B004B602A4B3A4A23623A4B59684E
:10351000914201D801325A608022384B616A12010F
:10352000354D1A60002905D0606901F0EFFC0130CB
:103530000138FDD1E02230490B681A4080235B013D
:103540002B431A60802380229B012B4312011A60B7
:103550008023DB024B60174B6362294B5A68FF2ABA
:1035600002D8802252005A608022264BA1691201A3
:10357000234D1A60002905D0606901F0C7FC0130B5
:103580000138FDD1E0221E490B681A4080235B01FF
:103590002B431A60802380229B012B4312011A6067
:1035A00080235B004B600E4BA361E3E6981A00207A
:1035B000006CDC021BB70000008000403CB0004003
:1035C00030B00040002F685900800240008C8647D0
:1035D00000C0024030800040001BB7003C8000402B
:1035E000405973075480004054B000406080004050
:1035F00060B00040FFFF03006C8000406CB00040F2
:103600004880004048B00040014B8000C0587047DF
:10361000981A0020F8B504000C201E0017000D00B9
:1036200001F074FC4201121A9101891AC9000918AB
:103630008901380001F06AFC069B226836041B03EE
:103640003343002A21DB194A194EA21851424A413C
:10365000802149018C4652420A40164962440A6060
:1036600015490A601700B1688F43FBD1C021221DA4
:103670008901114321222560A0600A602268002A86
:10368000FCDAE36008230B60F8BD3F2221680A40A2
:10369000AA42D8D1A2681205120D8242D3D1EE21DE
:1036A000E268C9020A409A42CDD1EDE70040FDBF71
:1036B00000C0004000E0004000F000408023024ACB
:1036C0009B000343D36270470080054010B58024FF
:1036D0001B4BE4051C6000282BD00123194C184318
:1036E000194BDC61194C44401C625962986280217C
:1036F000134BC9051960164816490860E021C90432
:103700001960002A04D18022134B12061A6010BDE2
:1037100053019B1A9B009A18104B12019A420BD826
:103720000F4B1A60084B5A6080220B4BD2051A606F
:10373000EDE7054BD861DAE7094A13601A00F1E7B3
:1037400000B00540D3C007B0008005402D3FF84FC2
:10375000FCFF01000820014000A00540FFFFFF0022
:10376000D01F0020AA23064A1B0113602F230549FE
:10377000D360054B19605368002BFCDA7047C046D4
:103780000040024000B0FA00006002407047C046AE
:10379000F8B557464E464546DE46E0B599460A9B83
:1037A00007009A460D9B884693460B9E15009B0783
:1037B0000FD10C9B9E420CD29D1B0E005D44541CED
:1037C0004B4631002020B8472200A542F7D1B04631
:1037D0000B9E002E28D04446AD195346AA1B013E2D
:1037E000985D21004B46B847002EF6D123002C00EF
:1037F00098460D9B9B0710D55B46E51A0C9BAB4288
:103800000BD946462200984601344B463100202011
:103810000135B8472200A845F6D820003CBC9046A8
:103820009946A246AB46F8BD2C00E2E7F0B54F46FC
:103830004646D646C0B584B098460EAB1B78944633
:103840009946129B0D9C109F119E9A0724D4012229
:103850001A409246002E62D1BC420CD21F2C00D9D5
:10386000B8E00C9A551E302201E0202C03D0013420
:103870002A55A742F9D85246002A0DD0A6420BD9A4
:10388000202C5AD00C9A551E302201E0202C54D006
:1038900001342A55B442F9D1DA0632D55A0555D445
:1038A000002C4FD10F9A102A00D18CE0022A00D1AF
:1038B0007EE030220C9C22704A460124002A25D04A
:1038C0002D220C9D2A55013403930C9B02960093E4
:1038D000019443466246FFF75BFF04B01CBC904670
:1038E0009946A246F0BD202CEED00C9A1519013451
:1038F00078222A70202CE7D030250C9A12191570E6
:103900000134202CE0D04A46002AD9D15A0728D4C5
:103910001A07D9D520220C9D2A550134D4E7002A54
:1039200024D04A46002A28D10C321A4225D1BC4262
:10393000A4D21F2C95D9202E1DD92024DA06C3D558
:103940005A0503D4A7421AD0B44218D00F9A102AAD
:103950001FD0022ACED1202CB6D00C9A12190134D5
:103960002EE02B220C9D2A550134ADE7BC4293D2A8
:103970001F2C00D875E720248EE7013ED7E7621E92
:10398000002A10D00F9D102D2DD0022D15D014001F
:10399000B2E79A06A7D5202C96D058250C9A121972
:1039A00015700134A6E70F9C102C15D0022CEED117
:1039B00062220C9C227001249EE70C9DAA46524470
:1039C0006225157096E79A06E7D478220C9C22703F
:1039D000012491E720244EE79A06F6D558220C9C44
:1039E0002270012488E7023C9D06D6D40C9D2D1937
:1039F00014007DE710B5002800D110BD03F0FEF9DA
:103A0000FBE7C04610B5002803D04A680B681100D8
:103A1000984710BDF0B5454657464E46DE46E0B5E0
:103A20009BB0249D259C82468846099299462A008F
:103A300023002800210001F046FD002800D0CBE043
:103A40000122D94B52422800210001F037FD002805
:103A500000D0C1E00122D54B52422800210001F0E4
:103A600017FD002800D0B7E0002200232800210025
:103A700001F00EFD002800D0EDE1AB460894802354
:103A8000289ADB001A40119201D1062326935B4647
:103A90000C9380235946289A1B011A40089B1092C8
:103AA0000B4300D0AFE0002A00D0BFE104260D9305
:103AB0000E930C9300230A93279BB34201D99B1BBF
:103AC0000A930227289B1F4005D0734273410A9A2C
:103AD0005B421A400A920C9B002B07D0584608996B
:103AE0000D9A0E9B01F073FC83460891002200237F
:103AF0002800210001F0CCFC002805D08020000621
:103B00008446089961440891289AA94B414613407C
:103B10005A4604930A9B50460393269B0293089BA4
:103B2000009201934B46099A00F0A2F9002E63D04F
:103B3000289B02009C061F23E4179C436534431C0A
:103B4000089320004B464146D0470C9B0024DA17CF
:103B50009D18DB0F9B46731E55400C9302E0050039
:103B6000202C11D00AAA94461F23013463440A2151
:103B700028001E1901F0CAF93031317028000A21DD
:103B800001F0C4F9092DEAD8052306930C9B019492
:103B90000593002304930A3303935B46029312AB0D
:103BA0000093089A4B4641465046FFF73FFE002FD0
:103BB00022D0099BC41A279BA3421DD90200574655
:103BC0001E00551C4B46414620200134B8472A00B0
:103BD000A642F6D828000FE0289B2A000493279BD2
:103BE00041460393269B5046029323000092019383
:103BF0004B46099A00F03CF91BB03CBC90469946F4
:103C0000A246AB46F0BD6B4A089B94465800400D57
:103C1000604401F06BFC684A684B01F0F6FB684AAF
:103C2000684B01F0CBFB089B674A1B031B0B1A4335
:103C300006000F000C981100644B002201F0B5FB48
:103C4000634A644B01F0E1FB02000B0030003900D5
:103C500001F0B4FB01F062FC0C9001F047FC5E4AFD
:103C60005E4B06000F0001F0D0FB00225C4B01F020
:103C7000A5FB01F053FC5B4A5B4B0D903900300013
:103C800001F0C3FB06000D980F0001F02FFC574A0E
:103C9000574B01F0BAFB02000B003000390001F075
:103CA00084FB02000B000A900B9101F0AEFB0600B2
:103CB0000F000A980B9902000B0001F07FFB002215
:103CC0000E900F914B4B3000390001F080FB002229
:103CD000494B01F073FB02000B003000390001F08A
:103CE00076FB0022454B01F069FB02000B0030001F
:103CF000390001F06CFB0A9A0B9B0F008021060033
:103D0000C905002001F051FB02000B003000390012
:103D100001F054FB3A4F02000B000E980F9901F08E
:103D200056FB0022284B01F049FBBC460D9A624429
:103D300016000022330501F068FB07000D900E000D
:103D40000E9102000B005846089901F0A1FB0028D3
:103D50005ED13B003200C6260C9963318E42B641DB
:103D6000109976420436002900D1A3E6134361D0AE
:103D7000089F244A244B5846390001F097FB00283D
:103D800007D00022214B5846390001F081FB002862
:103D900050D1269B002B00D18CE6119B5A1E9341DB
:103DA000269AD31A269385E6FFFFEF7FFFFFEFFFEA
:103DB000FFF7FFFF01FCFFFFFB799F501344D33F48
:103DC000B3C8608B288AC63F0000F03F0000F83F70
:103DD00061436F63A787D23F71A379094F930A406C
:103DE0000000E03F1655B5BBB16B0240EF39FAFE5B
:103DF000422EE63F00002C40000024400000184006
:103E0000FF0300002D431CEBE2361A3F80842E4155
:103E10000C9B0022013B0C930D98144B0E9901F062
:103E2000D6FA03000D900A000E9194E700230D933B
:103E30000E930C93269B19000C9B994213DDCB1A11
:103E4000013B26938023289ADB001A430023289203
:103E500000260C932EE680231B069C46A444634652
:103E6000AB4608930BE600232693EBE700002440C3
:103E7000F0B5DE4657464E464546E0B597B080461B
:103E8000894692469B46209A219B1000190001F01A
:103E90001AFB002800D01FE2209821990122CC4B68
:103EA000524201F0F5FA002800D03EE12098219915
:103EB0000122C84B524201F001FB002800D0E7E08C
:103EC000209821990022C44B01F0F8FA002800D074
:103ED000C7E0209821990022C04B01F0D9FA0028B0
:103EE00000D0BEE0209821990022002301F0D0FAF2
:103EF000002800D0E1E0002380240D93249BE400FF
:103F00001C4000D0E9E000220626B54B069207933C
:103F10000EAB08932098219901F000FB07000C904C
:103F200001F0E4FA02000B002098219901F03DFA1B
:103F3000069A079B01F069FA0A900B9101F012FBB7
:103F40000500099001F0CEFA02000B000A980B99C7
:103F500001F02BFA0022A34B0A900B9101F0AEFA6C
:103F6000002800D148E12B0001331800099301F02B
:103F7000B9FA069A079B01F099FA002804D03B0091
:103F800001330C9300230993002E00D0D5E00C9D43
:103F9000280001F0ABFA02000B002098219901F0F3
:103FA00004FA00228F4B06000F0001F071FA00287E
:103FB00008D100228B4B3000390001F07FFA002835
:103FC00000D17EE1202C00D1FAE00C9F0A213800BC
:103FD00000F074FF089E3031315538000A21651C0D
:103FE00000F06CFF002800D180E1202D00D1E7E037
:103FF0000A2100F063FF303171553800642100F070
:104000005DFF0234051E14D0202C00D1D8E008AA90
:10401000944617232800634401340A211E1900F036
:104020004DFF3031317028000A2100F047FF051E96
:10403000EAD10323249A1340012B00D1ECE0202C79
:1040400000D1C2E00D9B002B00D111E12D23089A75
:10405000651C1355249B01950393239B0293089B96
:1040600020E0249B52460493239B49460393229BC2
:1040700040460293209B219C009301945B46FFF7EE
:10408000C9FC17B03CBC90469946A246AB46F0BD71
:10409000249B5B070ED40322534B24990192039176
:1040A00023990291009352465B4649464046FFF7EA
:1040B0006FFBE6E74D4B0422EFE7209A219B00209F
:1040C000002101F072F9012380240D93249BE40068
:1040D000209021911C4000D115E7229B092B00D88C
:1040E00008E1190030230EAA4E1E08921370092E03
:1040F00000D1F9E0537008AA0C0094468E1E1721D7
:10410000093C02236144302205E00133CA54013ED8
:10411000202B00D1A3E09C42F7D1354BF2009B1835
:104120001A685B6806920793F4E6249B0393239B2B
:104130000293042301932F4BB4E7202C40D0099D18
:10414000731E0A212800069300F0E0FE089B303120
:10415000195528000A2100F0D9FE671C0995092D80
:1041600000D892E0202F2BD0B11E06910A2100F03A
:10417000CDFE089B3031D9550998642100F0C6FE68
:10418000099AA51C0700632A00D87FE03419013C76
:1041900014E0631B08AA0693944617230135634471
:1041A0000A2138005E1900F0B1FE3031317038005C
:1041B0000A2100F0ABFE092F68D90700202DE8D1B5
:1041C0000323249A1340012B25D0202542E7C04623
:1041D000FFFFEFFFFFFFEF7F65CDCD4165CDCDC187
:1041E00080842E410000E03F401901104419011065
:1041F000581901105019011000220A980B99494BC7
:1042000001F046F9002800D0BEE62B1E60D1099BC4
:1042100001330993B8E62024239B002B00D10EE73D
:104220000D9B002B03D1249A0C33134202D0239B05
:10423000013B2393239BA34200D800E708AA94469E
:10424000172330226344202CBFD0239901341A5500
:104250008C4200D1F3E6202CF7D12025FAE6324B30
:10426000F2009B185C681B6806930794202451E6B3
:10427000249B5B0720D4249B25001B0700D4E9E680
:104280002023089A01351355E4E63D00202D97D0F0
:1042900008A98C4617230698634442193021002848
:1042A00026D001355955202D30D0AA42F9D12E23E0
:1042B0000899541C8B5485E62B23089A651C1355CA
:1042C000C8E60123AC462B409C4463460C9379E638
:1042D000DB0700D458E69AE7249B0393239B0293C1
:1042E00003230193114BDDE6012416E72C00A0E621
:1042F0002A00DCE7DA001E000B4B9B185C681B6889
:10430000069307940EAB0024089303E60323249A34
:104310001340012B00D09DE6239B002B00D199E692
:1043200020247DE70000E03F581901104C190110CE
:10433000F0B54546DE4657464E46E0B5A1B01D00F5
:104340002A9B90460B93BD4ABD4B0A908B461A6040
:10435000002900D10DE2002328789A46002861D078
:10436000B84B56469946C24609E0741C3200534683
:104370000A9E5946B04726002878002850D00135BB
:104380002528F2D1042328789846023B9C46030056
:10439000203B691CDBB200240A00102B0ED84F46CC
:1043A0009B00FB589F4601230D001C432878691C85
:1043B0000300203BDBB20A00102BF0D90300303B96
:1043C000092B41D900272A286AD000230C932E28D4
:1043D00051D00300683BDBB2122B5FD89A499B0097
:1043E000CB589F4663460D001C43DFE743460D0054
:1043F0001C43DBE710230D001C43D7E708230D0007
:104400001C43D3E780235B0068781C43551C0300E2
:10441000253BDBB2532BA8D88C4A9B00D3589F4630
:10442000D046B2465246D04501D843465A1E43466E
:10443000594600200A9CA047504621B03CBC9046FB
:104440009946A246AB46F0BD0027030001E00D00EF
:104450000131B800C0194000C0180B7830381A007C
:10446000303A0700092AF2D918000023AA1C0C933D
:104470000D002E28ADD180236878DB001C4303009B
:10448000303B092B00D877E12A2800D1ABE10300AB
:10449000683BDBB215000132122B9FD91500B6E73D
:1044A0000B9B80CB002F00DA5BE16878AA1C0B9392
:1044B0000D008AE768786C2800D14DE280235B000C
:1044C0001C43551CA3E780239B0068781C43551CA4
:1044D0009DE76878682800D139E28023551C1C4389
:1044E00095E70B9B04CB98460C9B0B921078002B06
:1044F00000D0A2E1002801D100F071FC02235B4250
:104500005A1C0B9B944619000D92614401E08B42AA
:1045100006D001331A78002AF9D10B9A9B1A0D9311
:104520008023DB0023400E9305D00D9B19000C9BCC
:10453000994200D90D93022323400F9300D140E20A
:10454000002800D126E20E9B002B00D1E6E1414677
:104550000C9B0C9129009C190B9B5D469B1B320008
:10456000B8460B938B460AE0534629000A9F561C17
:10457000B8470B9B985D002800D104E232009442BA
:10458000F2D10C9B474698465B462600AB461D0081
:104590000F9B002B00D0FDE143460B93ECE60B9BF9
:1045A00004CB0B93002A00D128E121231C43A4460D
:1045B00010A988461F240F2144440023884603E0A5
:1045C000202B00D124E10A0041461140CFB238002F
:1045D0003730092900D807380133E05411090F2A70
:1045E000EED815E10B9B04330C93731C0D93984686
:1045F000A30700D406E20B9B3200187859465346B5
:104600000A9CA047BE19012F00D8A7E22B00424602
:104610005546B0469A465E460A9F541C2B00310010
:104620002020B84722004445F7D15346B346AA4656
:1046300026001D000C9B0B939EE6C04631430010E4
:10464000CC1F002060170110A4170110F0170110F3
:10465000782800D152E2582800D183E16F2800D198
:10466000F3E0622800D156E3102322009A4380230E
:10467000DB000D922340692800D0BCE30A220E9291
:10468000002B00D146E201230D9A9A430D9280241B
:104690000D9BA40023409C46692800D1E7E06428D4
:1046A00000D1E4E06346002B00D094E280230D9A11
:1046B0005B001A400B9B904604330F93002A00D0F6
:1046C0002CE30D9B5B0600D544E20D9B1B0600D43A
:1046D00088E30B9B1B881800031E00D04DE20D9A47
:1046E0001033110099430D91520500D445E2002387
:1046F00098460D9B059706930C9B04930E9B039382
:10470000002302934346019318AB009332005346B3
:1047100059460A98FFF78AF80F9B06000B932BE681
:10472000462800D18EE007220B9B04940733934365
:1047300019000C9A039702920CC90A9800920193EF
:104740000B91320053465946FFF792FB060013E6E1
:10475000741C320053460A9E59462520B047260055
:104760000AE60222687814437F42AA1C0B930D00CC
:104770002BE6D34B0A93EEE50023010000E02A006C
:104780009800C018400040185178030008003038E5
:10479000551C303B0928F2D90C930800023218E668
:1047A000202302009A43472A04D180231B011C4383
:1047B00002239843452801D120231C4307220B9B49
:1047C00004940733934319000C9A039702920CC97F
:1047D0000A98009201930B91320053465946FFF715
:1047E00019F90600C8E50B9BA87802CBCA43D2177B
:1047F00011400C91EA1C0B930235EAE510232100CD
:104800009943113319438C460023610500D4CFE648
:1048100062460692082205920C9A04921022039294
:1048200000220292019318AB00933200534659467E
:104830000A98FEF7FBFF06009EE5002800D1CDE2B6
:10484000013B5DE620231C436DE708230E93220005
:104850000D948023DB001340642800D0CEE2002BAF
:1048600000D010E780241300A40023409C46634638
:10487000002B00D0E5E080230D9A5B001A400B9BD3
:10488000904604330F93002A00D0C6E10D9B5B06CF
:1048900000D547E10D9B1B0600D499E20B9B00223B
:1048A0009B5ED9175A184A401000DA0F1492002B59
:1048B00009D1802310220D99DB000B4091430D910B
:1048C000002B00D050E10D9A6123920600D54123C0
:1048D00010AA1F249446DBB264440A3B159716962F
:1048E0000B9346460700A84625000E9C0AE030338D
:1048F000DBB20136AB55A74200D231E1202E00D108
:104900002EE107002100380000F000FBCBB209299E
:10491000EDD90B9A94466344DBB2EAE70B9B320075
:104920009E1B33005E46AB4655469A460B970A9F40
:104930002B003100541CB8475346185D2200002854
:10494000F6D1AA460B9F5D46B346260020E6C0235B
:10495000A8781C4303355AE5C0239B00A8781C4364
:10496000033554E50C2322009A4314331A430D9265
:10497000630500D5D3E080239B001C40F13BFF3B47
:10498000A4460E938EE60C9B474698465B46AB4684
:104990001D00FDE50D9B32009F4200D8FCE5BE19CD
:1049A000F61A2B005D469B460A9F541C534629006D
:1049B0002020B8472200B442F7D15B46AB461D0029
:1049C000EAE50D9A531C974200D812E2BB199B1AD4
:1049D0000D971F0032005E46AB460A9D541C53469D
:1049E00031002020A8472200BC42F7D15D46B346E3
:1049F00026000D9F7B1C0D930B9B1878002800D080
:104A0000A1E5C9E5012F00D8F0E1731E3200A846E8
:104A1000DF190A9E5D460D9C00E0013453462900D3
:104A20002020B0472200BC42F7D12600AB464546C5
:104A300001360B9B3A001878594653460A9CA0470A
:104A4000F8E507220B9B07339343013294469C44BD
:104A500062460B921A685B689C46DB1712931393AD
:104A60001298139903005340109364460B0063405F
:104A70001193109B119C1B1A8C4110931194634647
:104A8000DB0F149363461A4350D00D9A61239206AC
:104A900000D541230022DBB2904610AA0A3B1F2416
:104AA00094460F935B46644417932300159716961C
:104AB000AB46109E119F44460E9D984610E0C0469E
:104AC0008D3700103032D2B2434601341A550023DC
:104AD000BB4200D167E1202C00D167E106000F0046
:104AE0002A0000233000390000F052FAD2B2092A1D
:104AF000E8D90F9B9C466244D2B2E5E7802310229E
:104B0000DB0023400E920C2294430D94002B00D125
:104B1000BDE5B8E580239B001C40A446A7E6102312
:104B20000E93B0E50B9B1B781A00BDE60D9A10237F
:104B3000110099430D915205A7D5002398460D9B6E
:104B4000059706930C9B04930E9B0393149B02936F
:104B5000434667E60B9B1B781800BDE50D9E69E593
:104B60004546159FB046169E0D9B059706930C9BD8
:104B700004930E9B0393149BC3E50D9A6123920645
:104B800000D5412310AA1F249446DBB264440A3B9B
:104B9000149715960B9346460700A84625000E9CD1
:104BA00008E03033DBB20136AB55A7420ED3202EDE
:104BB0000CD007002100380000F0A8F9CBB2092979
:104BC000EFD90B9A94466344DBB2ECE74546149F59
:104BD000B046159E8DE507220B9B073393430132A8
:104BE00094469C4462460B921A6859681300100060
:104BF00009910B435CD10D9A1033110099430D912B
:104C0000520555D5002398460D9B059706930C9B9E
:104C100004930E9B0393002399E70B9B1B68D91702
:104C20005A184A401000DA0F1692002B08D1802340
:104C300010220D99DB000B4091430D91002B2CD1DC
:104C40000D9A6123920600D5412310AA90461F2495
:104C5000DBB244440A3B14971596A8460B932500F3
:104C6000070066460E9C08E03033DBB20136AB55D8
:104C7000A7420ED3202E0CD007002100380000F0F0
:104C800045F9CBB20929EFD90B9A94466344DBB2BC
:104C9000ECE74546B446149F159E0D9B0597069379
:104CA0000C9B04930E9B0393169B029363462AE589
:104CB0000D9A6123920600D541230022DBB2904673
:104CC00010AA0A3B1F2494460F935B466444149732
:104CD0001596AB4646461693A0460E9D099F0400C6
:104CE0000BE03032D2B2434601369A550023BB4224
:104CF00065D0202E65D004000F002A00002320007C
:104D0000390000F045F9D2B2092AEAD90F9B9C4636
:104D10006244D2B2E7E702230E9398E50B9B1B682F
:104D2000181E08D1802310220D99DB000B409143FF
:104D30000D91002B2CD10D9A6123920600D54123B1
:104D400010AA90461F24DBB244440A3B14971596E0
:104D5000A8460B932500070066460E9C08E03033FA
:104D6000DBB20136AB55A7420ED3202E0CD0070084
:104D70002100380000F0CAF8CBB20929EFD90B9A0C
:104D800094466344DBB2ECE74546B446149F159E57
:104D90000D9B059706930C9B04930E9B0393002396
:104DA00002936346AFE4B54200D894E6179B109691
:104DB00011975D46159F169EA0469B46BFE6A542ED
:104DC00097D9169BB0465D46149F159E9B461BE7E0
:104DD0000B9B1B68D9175A184A4065E500230D93B1
:104DE000FFF79EFB0B9B1B68180075E437000D9EB8
:104DF0001FE60D9302E60A230E932AE5140082E6CD
:104E000000B585B00391012102900093034813007F
:104E10004A4202A9FFF78CFA05B000BD053A00101E
:104E200010B5094A84B01468002C09D00122009101
:104E30000300524203A90548A047012004B010BD59
:104E400002F02EF80020F9E7CC1F0020F539001001
:104E500001480421014B1847C0050020814E001075
:104E6000142310B50100188804331B88984710BD1F
:104E7000162310B50100188802331B88984710BD0F
:104E8000F0B5C64600B5002916D01423040001254C
:104E900098461827890046184346216818883B8899
:104EA000984701C4431E984140420540A642F3D1B1
:104EB000280004BC9046F0BD0125F9E7124A936F23
:104EC0009B0815D29066D166002905D0FFE7FFE761
:104ED000FFE7516F106F704704B580210906C217B4
:104EE0005140002800D0C8430CF076FA002104BDE0
:104EF000F0B5146E556E576F166FFFF7E3FF14662B
:104F0000556657671667F0BD000000D0114A936FD1
:104F10009B0813D210665166002905D0FFE7FFE712
:104F2000FFE7516F106F704704B5002801D00020D3
:104F3000C0430CF051FA002104BDC046F0B5146E18
:104F4000556E576F166FFFF7E5FF14665566576786
:104F50001667F0BD000000D094464E4A926F92084A
:104F6000624601D230E0C046F0B54A4EB56F6D08DA
:104F7000FCD3346E756E776F366F00F025F894466B
:104F8000444A14665566576716676246F0BDC046C8
:104F90009446404A926F9208624601D258E0C04659
:104FA000F0B53C4EB56F6D08FCD3346E756E776FFF
:104FB000366F00F04DF89446364A146655665767CA
:104FC00016676246F0BDC046002B24DB11D00029D5
:104FD0003EDA00B5C943404200D1013100F038F853
:104FE000C943404200D10131DB43524200D1013379
:104FF00000BD002AEBD1002801D1002905D00020F6
:10500000C90FC90701D1C043410800B50CF0CCF964
:105010000022002300BD00B500290ADBDB43524219
:1050200000D1013300F014F8C943404200D10131EE
:1050300000BDC943404200D10131DB43524200D19F
:10504000013300F005F8DB43524200D1013300BDCB
:10505000002923D1002B18D1002A0CD0BC460D4FBB
:1050600038667A6600210023FFE7FFE7FFE77A6FE3
:10507000386F67467047002801D00748010000B527
:105080000CF092F90022002300BD02000B0000206A
:1050900000217047000000D0FFFFFFFF002B00D071
:1050A000BFE0130C28D1002AE7D080B4114F396635
:1050B0007A66FFE7FFE730B4040C7B6F396F1B049F
:1050C00023433B667A66FFE7FFE7FFE7C04684B20B
:1050D0007B6F3D6F1B0423433B667A66FFE7FFE768
:1050E000C04600232C042D0C7A6F386F00196941DB
:1050F000B0BC7047000000D0F0B594460025140EF7
:1051000001D112020835140F01D112010435940F98
:1051100001D192000235D40F01D152000135D40BD8
:105120000134254F7C66254C3C660E0C93B2FFE79C
:10513000FFE7FFE73C6F6643360C7703BE467343D9
:10514000DF0B5B04C01AB941130C7343DB18C91A97
:10515000CE086643360CB64493B273431F0F1B014F
:10516000C01AB941130C73431F0B1B05C01AB94178
:10517000860D8F023E436643360C092D24DB520A0E
:105180007243801A7703460A6643360C16235B1B6C
:10519000DE40DF40BF1964466643821B704604351B
:1051A00006330100D940A840C01900D30131A24202
:1051B00006D20023F0BD0000000000D0FFFFFFFF7B
:1051C000121B0130F3D3F1E709277F1BFE40644631
:1051D000A2B27243801A00D20139220C7243130C1E
:1051E0001204821A99410B007046043513370100EE
:1051F000F940A840801900D30131002B02D1A2420E
:105200000AD2F0BD013000D30131121BFAD2013BAA
:10521000F8D1A24200D2F0BD013000D30131121BFF
:10522000F7E7F0B51C0C00D080E00CB400251C0A98
:1052300004D11B02160E3343120208351C0B04D195
:105240001B01160F3343120104359C0B04D19B0044
:10525000960F334392000235DC0B02D192185B416A
:1052600001351C00971864410134464F7C66464C5A
:105270003C660E0CFFE7FFE7FFE7C0463C6F664366
:10528000360C7703BE4697B27743C01B00D2013974
:10529000C01B00D201399FB27743C91BC91B170C31
:1052A00077437E04FF0B801BB941CE086643360C62
:1052B0000C2D33DBB644120B1F053A431B0B97B280
:1052C0007743C01B00D201399FB27743C91B170C2B
:1052D00077433E043F0C801BB941860D8F023E434D
:1052E000664329277F1BFE400C3D7746AF40BF1920
:1052F00030BCA2B2ABB272437343801A9941220C04
:105300007243130C1204801A994102000B000137FA
:10531000001BA941F9D2781E0021F0BD0C277F1B8C
:10532000FE4077467F0BAF40FF19E0E700245D1C8D
:1053300007D0144F7D663966FFE7FFE7FFE7FFE719
:105340003C6F95B29EB265436643401BB141150C5C
:105350001E0C6543664336042F0C3E432D04401B50
:10536000B141994204D202000B0020000021F0BD9F
:1053700001D19042F7D3801A994101349942F2D376
:10538000F6E70000000000D0FFFFFFFF44464D4657
:1053900056465F46F0B47047F0BCA046A946B246F8
:1053A000BB46704748404140484018B41B4B5B68BF
:1053B000FC46019308BD04DF5B5C001018B4174B7A
:1053C0001B68FC46019308BD00DF655C0010944635
:1053D000134A926F920809D2624618B40F4BDB68E9
:1053E000FC46019308BD0CDF1D5F00100C4AF0B5B0
:1053F000146E556E576F166F6246FFF7EEFF084A40
:105400001466556657671667F0BD18B4034B9B6862
:10541000FC46019308BD08DFC15D00100823002091
:10542000000000D0FFB550404240504059404B4032
:10543000594000E0FFB5154F4C00640D03D0BC424D
:1054400004D10C0314D80020090D09055C00640D7B
:1054500003D0BC4204D11C030AD800221B0D1B053B
:1054600001264B4009D44B4003D58B4200D18242E8
:10547000FFBD9942FCD19042FFBD0B43DB180343B3
:105480001343F5D0C9434918FFBD0000FF070000D2
:1054900000B5FFF7CFFF804100BDC04600B5FFF764
:1054A000C9FF01D9002000BD012000BD00B5FFF7F4
:1054B000B9FF01D9002000BD012000BD00B5FFF7F4
:1054C000B1FF804100BD012040054A00121804D8F8
:1054D0005A00121801D800207047012070470020A0
:1054E000704700000021002805D17047C1174840CF
:1054F000401AFAD0C90713B5064B1B6898470CBC75
:10550000441CA2401005120B0349091B090519434D
:10551000114310BD502000201F04000010B54C00A6
:10552000620D8023D218DB00D21A5B057E2A10DDC3
:105530009E3A13DACC170903490819435242D14065
:10554000640001341532202A05DAD0400843604354
:1055500010BD002010BD0846604310BDC80FC01824
:10556000013810BD18B4044B5B6AFC46019308BDBA
:1055700024DFF962001000000823002018B4044B57
:105580001B6EFC46019308BD60DF0764001000003D
:105590000823002018B4044B5B6EFC46019308BD41
:1055A00064DFFD63001000000823002018B4044BE2
:1055B000DB6FFC46019308BD7CDF916300100000A7
:1055C0000823002018B4044B9B69FC46019308BDD6
:1055D00018DFE9600010000008230020024A034B96
:1055E00000B500F019FB00BD182D4454FB211940F3
:1055F0008A0002D3920D092A08DA18B4064BDB6B35
:10560000FC46019308BD3CDF3B65001000B5FFF789
:10561000E5FF04BC9646F0E7082300208A0002D389
:10562000920D092A08DA18B4064B1B6CFC4601934C
:1056300008BD40DF4B65001000B5FFF7CFFF04BC8D
:105640009646F0E70823002018B4044B9B6DFC46F7
:10565000019308BD58DF39660010000008230020C0
:10566000132370B51D78012D15D010DD2648FFF7E6
:10567000FFFB264C01008022200001F05BFA022D86
:1056800006D02348FFF7ECFB224B186070BD1F4C7F
:10569000214AA264F5E71D4C1F4AA3085B421D4046
:1056A0002FD02B0022602020A9006118451B0A6022
:1056B0004A608A60CA600A614A618A61CA610A6294
:1056C0004A628A62CA620A634A638A63CA630A6474
:1056D0004A648A64CA640A654A658A65CA650A6654
:1056E0004A668A66CA660A674A676D08102D03D142
:1056F0008A67CA67A264C4E71E339B00E250A264B3
:10570000BFE70023CFE7C046534400000823002032
:105710004C33000050200020295C0010254A4B002B
:1057200094465B0D6344F0B55A1C24DB5A1C3AD0F6
:105730003422D21A002A1DDD3324E41A20235B42CE
:10574000E5181ED40126AE4033000126A6403200E3
:1057500012184B41002D20DB0226AE4031000225FD
:10576000A54028001600002544428D4126402B40CC
:1057700030001900F0BD0022C90FCB07100019003E
:10578000F8E720260127361BF7400126A6403B00FC
:10579000320012184B41002DDEDA202502262D1B87
:1057A000EE403100DBE7CB0F034ADB071A43002052
:1057B0001100DFE701FCFFFF0000F03FF8B5020039
:1057C0000B0004000D0000201049FFF7EEFD002241
:1057D00006000F000D4B20002900FFF7EFFD0B0026
:1057E000020039003000FFF710FE4B005B0D01D0C6
:1057F000002908DBFFF7E6FE02000B00200029006D
:10580000FFF722FFF8BD00200149FBE70000F03F51
:105810000000F07FF0B55746DE464E464546E0B5FF
:105820005C00640DA246574C94464A0087B0520D66
:10583000A24265D05446002C62D0CC0F0394002ABB
:105840000CD1002C5FD1002400252000290007B0D6
:105850003CBC90469946A246AB46F0BD04000D0004
:105860005245F2DB802009031B0340031B0B090B8D
:105870000143184353460D006146D31A009101902D
:105880009846002B62DD011101204042FFF73EFBEC
:10589000834616E022009A40170023004A469340B0
:1058A0001E00009A019B4810C91700F0CFFF434625
:1058B0004A4634003D009B1A241A8D419846002B1D
:1058C00025DD4346C1460C2B01DD0C2399465B4682
:1058D000A91159434A461D239B1A202219414B46C0
:1058E000524201319B18D5D54A4620239B1A2200EB
:1058F000DA40484613002A00824017001F43CCE7D5
:105900000024214DA1E7802500242D069DE7019B61
:10591000AB4226DD002D07DA009A019BA4185D41F9
:10592000002D01DAA4185D41039B002B04D0220056
:105930002B00002554429D415346144A2000290063
:10594000D21AFFF71BFE04000D007EE7009A019BB0
:10595000AB42E9DCAB4211D0009A019BA41A9D41F5
:10596000E2E7009A019BAB4201D1A242D2D8009A51
:10597000019BA41A9D41AB42ECDDD5E7009BA342FD
:10598000EAD9D1E7FF0700000000F07F33040000F0
:10599000F0B5DE46574645464E46E0B59B465B00B1
:1059A0005B0D89B09A46129B4D0004006D0D002BD3
:1059B00002D01E0000233360944B9D4200D1ADE025
:1059C0005646002E00D1A9E0002D00D1A9E09A454D
:1059D00000D19CE05346013B0393AB4200DD96E0CF
:1059E000CB0F0E039946330B984680235B039C46EE
:1059F00026004346644623431F005B461C03634660
:105A0000240B23430193039B0092AB4256D0534691
:105A1000ED1A4B46002B00D1B9E033003C000027C3
:105A20005E42A741002D00DCC5E00120019B404201
:105A30001911FFF76BFA00239946534604935B460E
:105A400003900593AB461BE032009A4015003300EB
:105A5000524693401C0043464046D917009A019B8A
:105A600000F0F4FE4B4652469340434499465B4651
:105A700026002F009B1A361A8F419B46002B53DDC0
:105A80005B46DA460C2B01DD0C239A46039ABB11C8
:105A9000534351461D22521A1341202201335B10F9
:105AA000524298468B18CFD5202332005B1ADA4039
:105AB00013003A008A4015001D43C8E7019B9F422E
:105AC00005DC009B019CA74221D19E421FD9009872
:105AD00001994B4600184941002B00D080E0039B00
